{
  "_format": "hh-sol-artifact-1",
  "contractName": "Lottery",
  "sourceName": "contracts/Lottery.sol",
  "abi": [
    {
      "inputs": [
        {
          "internalType": "string",
          "name": "name",
          "type": "string"
        }
      ],
      "stateMutability": "payable",
      "type": "constructor"
    },
    {
      "inputs": [],
      "name": "admin",
      "outputs": [
        {
          "internalType": "address",
          "name": "",
          "type": "address"
        }
      ],
      "stateMutability": "view",
      "type": "function"
    },
    {
      "inputs": [],
      "name": "get",
      "outputs": [
        {
          "internalType": "string",
          "name": "",
          "type": "string"
        }
      ],
      "stateMutability": "view",
      "type": "function"
    },
    {
      "inputs": [],
      "name": "getBalance",
      "outputs": [
        {
          "internalType": "uint256",
          "name": "",
          "type": "uint256"
        }
      ],
      "stateMutability": "view",
      "type": "function"
    },
    {
      "inputs": [],
      "name": "pickWinner",
      "outputs": [],
      "stateMutability": "nonpayable",
      "type": "function"
    },
    {
      "inputs": [
        {
          "internalType": "uint256",
          "name": "",
          "type": "uint256"
        }
      ],
      "name": "players",
      "outputs": [
        {
          "internalType": "address payable",
          "name": "",
          "type": "address"
        }
      ],
      "stateMutability": "view",
      "type": "function"
    },
    {
      "inputs": [
        {
          "internalType": "string",
          "name": "_LotName",
          "type": "string"
        }
      ],
      "name": "set",
      "outputs": [],
      "stateMutability": "nonpayable",
      "type": "function"
    },
    {
      "stateMutability": "payable",
      "type": "receive"
    }
  ],
  "bytecode": "0x60806040526040516200165e3803806200165e833981810160405281019062000029919062000231565b33600160006101000a81548173ffffffffffffffffffffffffffffffffffffffff021916908373ffffffffffffffffffffffffffffffffffffffff1602179055508060029080519060200190620000829291906200010f565b506000600160009054906101000a900473ffffffffffffffffffffffffffffffffffffffff169080600181540180825580915050600190039060005260206000200160009091909190916101000a81548173ffffffffffffffffffffffffffffffffffffffff021916908373ffffffffffffffffffffffffffffffffffffffff16021790555050620003e6565b8280546200011d906200030b565b90600052602060002090601f0160209004810192826200014157600085556200018d565b82601f106200015c57805160ff19168380011785556200018d565b828001600101855582156200018d579182015b828111156200018c5782518255916020019190600101906200016f565b5b5090506200019c9190620001a0565b5090565b5b80821115620001bb576000816000905550600101620001a1565b5090565b6000620001d6620001d0846200029f565b62000276565b905082815260208101848484011115620001ef57600080fd5b620001fc848285620002d5565b509392505050565b600082601f8301126200021657600080fd5b815162000228848260208601620001bf565b91505092915050565b6000602082840312156200024457600080fd5b600082015167ffffffffffffffff8111156200025f57600080fd5b6200026d8482850162000204565b91505092915050565b60006200028262000295565b905062000290828262000341565b919050565b6000604051905090565b600067ffffffffffffffff821115620002bd57620002bc620003a6565b5b620002c882620003d5565b9050602081019050919050565b60005b83811015620002f5578082015181840152602081019050620002d8565b8381111562000305576000848401525b50505050565b600060028204905060018216806200032457607f821691505b602082108114156200033b576200033a62000377565b5b50919050565b6200034c82620003d5565b810181811067ffffffffffffffff821117156200036e576200036d620003a6565b5b80604052505050565b7f4e487b7100000000000000000000000000000000000000000000000000000000600052602260045260246000fd5b7f4e487b7100000000000000000000000000000000000000000000000000000000600052604160045260246000fd5b6000601f19601f8301169050919050565b61126880620003f66000396000f3fe6080604052600436106100595760003560e01c806312065fe01461016d5780634ed3885e146101985780635d495aea146101c15780636d4ce63c146101d8578063f71d96cb14610203578063f851a4401461024057610168565b366101685767016345785d8a000034146100a8576040517f08c379a000000000000000000000000000000000000000000000000000000000815260040161009f90610d74565b60405180910390fd5b600160009054906101000a900473ffffffffffffffffffffffffffffffffffffffff1673ffffffffffffffffffffffffffffffffffffffff163373ffffffffffffffffffffffffffffffffffffffff16141561010357600080fd5b6000339080600181540180825580915050600190039060005260206000200160009091909190916101000a81548173ffffffffffffffffffffffffffffffffffffffff021916908373ffffffffffffffffffffffffffffffffffffffff160217905550005b600080fd5b34801561017957600080fd5b5061018261026b565b60405161018f9190610d94565b60405180910390f35b3480156101a457600080fd5b506101bf60048036038101906101ba9190610b4f565b610303565b005b3480156101cd57600080fd5b506101d661031d565b005b3480156101e457600080fd5b506101ed6107ec565b6040516101fa9190610d12565b60405180910390f35b34801561020f57600080fd5b5061022a60048036038101906102259190610b90565b61087e565b6040516102379190610cf7565b60405180910390f35b34801561024c57600080fd5b506102556108bd565b6040516102629190610cdc565b60405180910390f35b60003373ffffffffffffffffffffffffffffffffffffffff16600160009054906101000a900473ffffffffffffffffffffffffffffffffffffffff1673ffffffffffffffffffffffffffffffffffffffff16146102fd576040517f08c379a00000000000000000000000000000000000000000000000000000000081526004016102f490610d54565b60405180910390fd5b47905090565b80600290805190602001906103199291906109a5565b5050565b3373ffffffffffffffffffffffffffffffffffffffff16600160009054906101000a900473ffffffffffffffffffffffffffffffffffffffff1673ffffffffffffffffffffffffffffffffffffffff16146103ad576040517f08c379a00000000000000000000000000000000000000000000000000000000081526004016103a490610d54565b60405180910390fd5b600260008054905010156103f6576040517f08c379a00000000000000000000000000000000000000000000000000000000081526004016103ed90610d34565b60405180910390fd5b600080600080805490506104086108e3565b610412919061107c565b90506000818154811061044e577f4e487b7100000000000000000000000000000000000000000000000000000000600052603260045260246000fd5b9060005260206000200160009054906101000a900473ffffffffffffffffffffffffffffffffffffffff1692508273ffffffffffffffffffffffffffffffffffffffff166108fc6064604b6104a161026b565b6104ab9190610ea8565b6104b59190610e77565b9081150290604051600060405180830381858888f193505050501580156104e0573d6000803e3d6000fd5b5060008190505b60016000805490506104f99190610f02565b81101561060657600060018261050f9190610e21565b81548110610546577f4e487b7100000000000000000000000000000000000000000000000000000000600052603260045260246000fd5b9060005260206000200160009054906101000a900473ffffffffffffffffffffffffffffffffffffffff16600082815481106105ab577f4e487b7100000000000000000000000000000000000000000000000000000000600052603260045260246000fd5b9060005260206000200160006101000a81548173ffffffffffffffffffffffffffffffffffffffff021916908373ffffffffffffffffffffffffffffffffffffffff16021790555080806105fe90611029565b9150506104e7565b50600080548061063f577f4e487b7100000000000000000000000000000000000000000000000000000000600052603160045260246000fd5b6001900381819060005260206000200160006101000a81549073ffffffffffffffffffffffffffffffffffffffff02191690559055600080805490506106836108e3565b61068d919061107c565b815481106106c4577f4e487b7100000000000000000000000000000000000000000000000000000000600052603260045260246000fd5b9060005260206000200160009054906101000a900473ffffffffffffffffffffffffffffffffffffffff1691508173ffffffffffffffffffffffffffffffffffffffff166108fc6064601461071761026b565b6107219190610ea8565b61072b9190610e77565b9081150290604051600060405180830381858888f19350505050158015610756573d6000803e3d6000fd5b50600160009054906101000a900473ffffffffffffffffffffffffffffffffffffffff1673ffffffffffffffffffffffffffffffffffffffff166108fc6064600561079f61026b565b6107a99190610ea8565b6107b39190610e77565b9081150290604051600060405180830381858888f193505050501580156107de573d6000803e3d6000fd5b506107e761091d565b505050565b6060600280546107fb90610fc6565b80601f016020809104026020016040519081016040528092919081815260200182805461082790610fc6565b80156108745780601f1061084957610100808354040283529160200191610874565b820191906000526020600020905b81548152906001019060200180831161085757829003601f168201915b5050505050905090565b6000818154811061088e57600080fd5b906000526020600020016000915054906101000a900473ffffffffffffffffffffffffffffffffffffffff1681565b600160009054906101000a900473ffffffffffffffffffffffffffffffffffffffff1681565b600044426000805490506040516020016108ff93929190610c9f565b6040516020818303038152906040528051906020012060001c905090565b600067ffffffffffffffff81111561095e577f4e487b7100000000000000000000000000000000000000000000000000000000600052604160045260246000fd5b60405190808252806020026020018201604052801561098c5781602001602082028036833780820191505090505b50600090805190602001906109a2929190610a2b565b50565b8280546109b190610fc6565b90600052602060002090601f0160209004810192826109d35760008555610a1a565b82601f106109ec57805160ff1916838001178555610a1a565b82800160010185558215610a1a579182015b82811115610a195782518255916020019190600101906109fe565b5b509050610a279190610ab5565b5090565b828054828255906000526020600020908101928215610aa4579160200282015b82811115610aa35782518260006101000a81548173ffffffffffffffffffffffffffffffffffffffff021916908373ffffffffffffffffffffffffffffffffffffffff16021790555091602001919060010190610a4b565b5b509050610ab19190610ab5565b5090565b5b80821115610ace576000816000905550600101610ab6565b5090565b6000610ae5610ae084610dd4565b610daf565b905082815260208101848484011115610afd57600080fd5b610b08848285610f84565b509392505050565b600082601f830112610b2157600080fd5b8135610b31848260208601610ad2565b91505092915050565b600081359050610b498161121b565b92915050565b600060208284031215610b6157600080fd5b600082013567ffffffffffffffff811115610b7b57600080fd5b610b8784828501610b10565b91505092915050565b600060208284031215610ba257600080fd5b6000610bb084828501610b3a565b91505092915050565b610bc281610f48565b82525050565b610bd181610f36565b82525050565b6000610be282610e05565b610bec8185610e10565b9350610bfc818560208601610f93565b610c0581611169565b840191505092915050565b6000610c1d602383610e10565b9150610c288261117a565b604082019050919050565b6000610c40601583610e10565b9150610c4b826111c9565b602082019050919050565b6000610c63601a83610e10565b9150610c6e826111f2565b602082019050919050565b610c8281610f7a565b82525050565b610c99610c9482610f7a565b611072565b82525050565b6000610cab8286610c88565b602082019150610cbb8285610c88565b602082019150610ccb8284610c88565b602082019150819050949350505050565b6000602082019050610cf16000830184610bc8565b92915050565b6000602082019050610d0c6000830184610bb9565b92915050565b60006020820190508181036000830152610d2c8184610bd7565b905092915050565b60006020820190508181036000830152610d4d81610c10565b9050919050565b60006020820190508181036000830152610d6d81610c33565b9050919050565b60006020820190508181036000830152610d8d81610c56565b9050919050565b6000602082019050610da96000830184610c79565b92915050565b6000610db9610dca565b9050610dc58282610ff8565b919050565b6000604051905090565b600067ffffffffffffffff821115610def57610dee61113a565b5b610df882611169565b9050602081019050919050565b600081519050919050565b600082825260208201905092915050565b6000610e2c82610f7a565b9150610e3783610f7a565b9250827fffffffffffffffffffffffffffffffffffffffffffffffffffffffffffffffff03821115610e6c57610e6b6110ad565b5b828201905092915050565b6000610e8282610f7a565b9150610e8d83610f7a565b925082610e9d57610e9c6110dc565b5b828204905092915050565b6000610eb382610f7a565b9150610ebe83610f7a565b9250817fffffffffffffffffffffffffffffffffffffffffffffffffffffffffffffffff0483118215151615610ef757610ef66110ad565b5b828202905092915050565b6000610f0d82610f7a565b9150610f1883610f7a565b925082821015610f2b57610f2a6110ad565b5b828203905092915050565b6000610f4182610f5a565b9050919050565b6000610f5382610f5a565b9050919050565b600073ffffffffffffffffffffffffffffffffffffffff82169050919050565b6000819050919050565b82818337600083830152505050565b60005b83811015610fb1578082015181840152602081019050610f96565b83811115610fc0576000848401525b50505050565b60006002820490506001821680610fde57607f821691505b60208210811415610ff257610ff161110b565b5b50919050565b61100182611169565b810181811067ffffffffffffffff821117156110205761101f61113a565b5b80604052505050565b600061103482610f7a565b91507fffffffffffffffffffffffffffffffffffffffffffffffffffffffffffffffff821415611067576110666110ad565b5b600182019050919050565b6000819050919050565b600061108782610f7a565b915061109283610f7a565b9250826110a2576110a16110dc565b5b828206905092915050565b7f4e487b7100000000000000000000000000000000000000000000000000000000600052601160045260246000fd5b7f4e487b7100000000000000000000000000000000000000000000000000000000600052601260045260246000fd5b7f4e487b7100000000000000000000000000000000000000000000000000000000600052602260045260246000fd5b7f4e487b7100000000000000000000000000000000000000000000000000000000600052604160045260246000fd5b6000601f19601f8301169050919050565b7f4e75206176656d207061727469636970616e74692070656e74727520746f6d6260008201527f6f6c610000000000000000000000000000000000000000000000000000000000602082015250565b7f596f7520617265206e6f7420746865206f776e65720000000000000000000000600082015250565b7f4d7573742073656e6420302e3120657468657220616d6f756e74000000000000600082015250565b61122481610f7a565b811461122f57600080fd5b5056fea264697066735822122067784f57f26fd06725444d3b597db54851122bf1c148042ea19d168977b86e4e64736f6c63430008040033",
  "linkReferences": {},
  "deployedLinkReferences": {}
}